:100000000C942A000C943C000C948F020C943C003D
:100010000C943C000C943C000C943C000C943C0070
:100020000C943C000C943C000C943C000C940A038F
:100030000C943C000C943C000C943C000C943C0050
:100040000C943C000C943C000C943C000C943C0040
:100050000C943C0011241FBECFE5D8E0DEBFCDBF1D
:1000600020E0A0E6B0E001C01D92A537B207E1F79D
:100070000E948E010C9492040C940000843008F0CD
:1000800072C0683008F06FC04130A1F5813089F04E
:1000900028F08230C9F0833011F108952AB381E04D
:1000A00090E002C0880F991F6A95E2F7822B8ABB05
:1000B000089527B381E090E002C0880F991F6A95E8
:1000C000E2F7822B87BB089524B381E090E002C061
:1000D000880F991F6A95E2F7822B84BB089521B39C
:1000E00081E090E002C0880F991F6A95E2F7822BA9
:1000F00081BB0895411137C0813091F028F08230E2
:10010000D9F0833029F108952AB381E090E002C04C
:10011000880F991F6A95E2F7809582238ABB08951C
:1001200027B381E090E002C0880F991F6A95E2F73B
:100130008095822387BB089524B381E090E002C0BC
:10014000880F991F6A95E2F78095822384BB0895F2
:1001500021B381E090E002C0880F991F6A95E2F711
:100160008095822381BB0895843008F072C0683086
:1001700008F06FC04130A1F5813089F028F082305D
:10018000C9F0833011F108952BB381E090E002C0F3
:10019000880F991F6A95E2F7822B8BBB089528B3CD
:1001A00081E090E002C0880F991F6A95E2F7822BE8
:1001B00088BB089525B381E090E002C0880F991FA5
:1001C0006A95E2F7822B85BB089522B381E090E027
:1001D00002C0880F991F6A95E2F7822B82BB0895AF
:1001E000411137C0813091F028F08230D9F083304E
:1001F00029F108952BB381E090E002C0880F991F88
:100200006A95E2F7809582238BBB089528B381E03D
:1002100090E002C0880F991F6A95E2F780958223CB
:1002200088BB089525B381E090E002C0880F991F34
:100230006A95E2F78095822385BB089522B381E019
:1002400090E002C0880F991F6A95E2F7809582239B
:1002500082BB08958430B8F56130A1F4813049F053
:1002600028F0823049F0833051F008958FEF8ABB37
:1002700008958FEF87BB08958FEF84BB08958FEFAC
:1002800081BB0895611110C0813041F028F08230A7
:1002900039F0833039F008951ABA089517BA0895DD
:1002A00014BA089511BA0895813041F028F08230CF
:1002B00039F0833039F008956ABB089567BB08951B
:1002C00064BB089561BB089581E690E09BBD8ABD43
:1002D0002FEF83ED90E3215080409040E1F700C084
:1002E000000008958AE392E09BBD8ABD2FEF83ED65
:1002F00090E3215080409040E1F700C00000089555
:100300008EE591E09BBD8ABD2FEF83ED90E32150F8
:1003100080409040E1F700C00000089589B78160F7
:1003200089BF61E080E00E942A0161E081E00E94D3
:100330002A010E94620278948FB5826A8FBD8EB5C1
:100340008B618EBD87E893E197BD86BD81B38063E5
:1003500081BB0E9480010E9474020E942503609369
:100360006400709365008093660090936700653128
:100370007105810591051CF00E942E03EACF0E94B1
:10038000F2032FEF89E698E1215080409040E1F799
:1003900000C000000E94D5030E9464012FEF80E797
:1003A00092E0215080409040E1F700C000000E94A0
:1003B00074022FEF81EE94E0215080409040E1F7ED
:1003C00000C000000E9425036093680070936900DC
:1003D00080936A0090936B002FEF81EE94E02150A0
:1003E00080409040E1F700C000000E9472012FEFB2
:1003F00080E792E0215080409040E1F700C000008B
:100400000E9474022FEF81EE94E0215080409040D2
:10041000E1F700C000000E94250360936000709324
:10042000610080936200909363000E94800180913C
:10043000600090916100A0916200B09163008531ED
:100440009105A105B10574F44091680050916900CF
:1004500060916A0070916B0045315105610571052D
:100460000CF477CF409168005091690060916A0068
:1004700070916B00481759076A077B0774F40E9454
:1004800073032FEF8FE097E2215080409040E1F717
:1004900000C000000E94D5035CCF0E94A4032FEF90
:1004A0008FE097E2215080409040E1F700C00000CB
:1004B0000E94D5034ECF85B7846085BF8BB7806817
:1004C0008BBF089541E060E083E00E943E0040E081
:1004D00063E083E00E943E0041E063E083E00E942D
:1004E000B4000E945B02089580916E0090916F00AD
:1004F000892BA1F441E060E083E00E94B40085E331
:100500008A95F1F7000040E060E083E00E94B400CB
:1005100081E090E090936F0080936E0008951F92A9
:100520000F920FB60F9211242F933F934F935F9327
:100530006F937F938F939F93AF93BF93EF93FF93AB
:1005400080916E0090916F00892B09F452C08091C8
:10055000700081110CC081E08093700010926D00DA
:1005600010926C0083B7816083BF12BE42C01092AC
:10057000700022B740916C0050916D003FEF349FA6
:10058000C001359F900D1124820F911DA0E0B0E0B5
:100590008093710090937200A0937300B0937400E5
:1005A0008091710090917200A0917300B0917400DD
:1005B000BB231CF40196A11DB11D9C01AD015595F5
:1005C000479537952795ACEFB5E80E94560420E093
:1005D00034E244EF50E00E943704209371003093DE
:1005E0007200409373005093740010926F00109249
:1005F0006E00FF91EF91BF91AF919F918F917F918D
:100600006F915F914F913F912F910F900FBE0F907F
:100610001F9018951F920F920FB60F9211248F936F
:100620009F9380917000882349F080916C00909195
:100630006D00019690936D0080936C009F918F9157
:100640000F900FBE0F901F901895609171007091E0
:1006500072008091730090917400089561E081E0D0
:100660000E942A0141E060E081E00E94B40041E084
:1006700061E081E00E94B40040E062E081E00E941D
:10068000B40041E063E081E00E94B40040E064E037
:1006900081E00E94B40041E065E081E00E94B40086
:1006A00061E082E00E942A0141E060E082E00E9475
:1006B000B40041E061E082E00E94B40040E062E00A
:1006C00082E00E94B40041E063E082E00E94B40056
:1006D00040E064E082E00E94B40041E065E082E036
:1006E0000E94B400089561E081E00E942A0140E088
:1006F00060E081E00E94B40040E065E081E00E949B
:10070000B40061E082E00E942A0141E060E082E002
:100710000E94B40041E061E082E00E94B40040E049
:1007200062E082E00E94B40041E063E082E00E9467
:10073000B40040E064E082E00E94B40041E065E083
:1007400082E00E94B400089561E081E00E942A01E5
:1007500041E060E081E00E94B40041E061E081E0BE
:100760000E94B40040E062E081E00E94B40041E0F9
:1007700063E081E00E94B40040E064E081E00E9418
:10078000B40041E065E081E00E94B40061E082E0F5
:100790000E942A0140E060E082E00E94B40040E054
:1007A00065E082E00E94B400089561E081E00E946B
:1007B0002A0140E060E081E00E94B40040E065E092
:1007C00081E00E94B40061E082E00E942A0140E0E2
:1007D00060E082E00E94B40040E065E082E00E94B8
:1007E000B400089561E081E00E942A0141E060E0E8
:1007F00081E00E94B40040E061E081E00E94B4002A
:1008000041E062E081E00E94B40040E063E081E00A
:100810000E94B40041E064E081E00E94B40041E045
:1008200065E081E00E94B40061E082E00E942A015C
:1008300041E060E082E00E94B40040E061E082E0DC
:100840000E94B40041E062E082E00E94B40040E017
:1008500063E082E00E94B40041E064E082E00E9434
:10086000B40041E065E082E00E94B4000895052EE6
:1008700097FB1EF400940E944E0457FD07D00E947F
:10088000610407FC03D04EF40C944E04509540953F
:10089000309521953F4F4F4F5F4F0895909580952C
:1008A000709561957F4F8F4F9F4F08950E948304ED
:1008B000A59F900DB49F900DA49F800D911D1124B4
:1008C0000895A1E21A2EAA1BBB1BFD010DC0AA1F91
:1008D000BB1FEE1FFF1FA217B307E407F50720F0A9
:1008E000A21BB30BE40BF50B661F771F881F991F24
:1008F0001A9469F760957095809590959B01AC016D
:10090000BD01CF010895A29FB001B39FC001A39F75
:10091000700D811D1124911DB29F700D811D112438
:08092000911D0895F894FFCF2A
:00000001FF
